:020000040800F2
:1000000000500020B10D00085D0B0008630B0008D4
:10001000690B00086F0B0008750B0008000000005A
:100020000000000000000000000000007B0B000842
:10003000870B000800000000930B00089F0B0008CE
:10004000F90D0008F90D0008F90D0008AD0B0008C6
:10005000F90D0008F90D0008F90D0008F90D000868
:10006000F90D0008F90D0008F90D0008F90D000858
:10007000F90D0008F90D0008F90D0008F90D000848
:10008000F90D0008F90D0008F90D0008F90D000838
:10009000F90D0008F90D0008F90D0008F90D000828
:1000A000F90D0008C10B0008F90D0008F90D000852
:1000B000F90D0008F90D0008F90D0008F90D000808
:1000C000F90D0008F90D0008F90D0008F90D0008F8
:1000D000F90D0008F90D0008D50B0008F90D00080E
:1000E000E90B0008F90D0008F90D000800000000F8
:1000F0000000000000000000000000000000000000
:0C01000000000000000000005FF808F1A3
:10010C0010B5054C237833B9044B13B10448AFF345
:10011C0000800123237010BD74000020000000003B
:10012C002852000808B5034B1BB103490348AFF331
:10013C00008008BD00000000780000202852000854
:10014C0080B500AF01220121024801F01BFA00BF6B
:10015C0080BD00BF0008014080B500AF0122022124
:10016C00024801F00FFA00BF80BD00BF000801403B
:10017C0080B500AF01224FF48071024801F002FA01
:10018C0000BF80BD0010014080B500AF264B1B683E
:10019C00022B31D0022B45DC002B02D0012B11D0CD
:1001AC0040E0FFF7E5FF0021002000F032F91F4886
:1001BC0000F01AF90021012000F02BF91C4800F086
:1001CC0013F92FE0FFF7C8FF0521012000F021F9FA
:1001DC00184800F009F90021022000F01AF916481D
:1001EC0000F002F9154B1B68012B18D100F0CEF86A
:1001FC000D4B00221A6012E0FFF7A2FF052101202F
:10020C0000F007F90E4800F0EFF80C4B1B68012BBF
:10021C0007D100F0BBF8044B00221A6001E000BFCC
:10022C0000E000BF00BF80BD90000020C80000208F
:10023C00B800002040520008D40000209400002098
:10024C004852000880B582B002AF00220A490B4820
:10025C0002F0C0FE084B9B781A46074B5B78194698
:10026C00054BDB7800930B460549064804F070FCFF
:10027C0000BFBD4680BD00BFC4000020300100207F
:10028C0050520008B800002080B582B002AF0022A6
:10029C000A490B4802F010FD084B1B781A46074B15
:1002AC005B781946054B9B7800930B46054906482D
:1002BC0004F04EFC00BFBD4680BD00BFB400002062
:1002CC003001002064520008C800002080B586B0C0
:1002DC0002AF0346FB71FB7923F00F03FB73FB7931
:1002EC001B01BB73FB7B43F00C03DBB23B72FB7B50
:1002FC0043F00803DBB27B72BB7B43F00C03DBB235
:10030C00BB72BB7B43F00803DBB2FB7207F1080244
:10031C006423009304234221034801F0CBFA00BF6D
:10032C001037BD4680BD00BFDC00002080B586B014
:10033C0002AF0346FB71FB7923F00F03FB73FB79D0
:10034C001B01BB73FB7B43F00D03DBB23B72FB7BEE
:10035C0043F00903DBB27B72BB7B43F00D03DBB2D2
:10036C00BB72BB7B43F00903DBB2FB7207F10802E3
:10037C006423009304234221034801F09BFA00BF3D
:10038C001037BD4680BD00BFDC00002080B500AF3B
:10039C003320FFF79BFF3220FFF798FF322000F04D
:1003AC0089FD2820FFF792FF322000F083FD012009
:1003BC00FFF78CFF322000F07DFD0620FFF786FF53
:1003CC00322000F077FD0C20FFF780FF322000F088
:1003DC0071FD0220FFF77AFF322000F06BFD8020C8
:1003EC00FFF774FF00BF80BD80B582B000AF7860AE
:1003FC0006E07B685A1C7A601B781846FFF796FF5C
:10040C007B681B78002BF4D100BF00BF0837BD46BA
:10041C0080BD80B584B000AF786039607B68012BFB
:10042C0008D17B68DAB23B68DBB21344DBB27F33B2
:10043C00FB7308E03B68DBB24033DBB25BB263F0CA
:10044C007F035BB2FB73FB7B1846FFF73FFF00BFDC
:10045C001037BD4680BD000080B584B000AF00F001
:10046C00C7FC00F033F800F07DF900F089F800F0DB
:10047C00FFF800F0B3F800F04BF90F4803F038F92F
:10048C00FFF784FF0D4B00221A60FFF7DBFEFFF72E
:10049C00FBFE01220A490B4803F01CFD0123FB6003
:1004AC00094B1B78012B04D100F02EFC064B0022CB
:1004BC001A70FFF769FEF3E744010020900000205A
:1004CC00A80000208C010020AA00002080B594B068
:1004DC0000AF07F1280328220021184604F07AFA0D
:1004EC0007F1140300221A605A609A60DA601A61EC
:1004FC003B1D00221A605A609A60DA600623BB62C8
:10050C0001237B630123BB631023FB6302237B6406
:10051C000023BB644FF46013FB6407F128031846F7
:10052C0001F02CFD0346002B01D000F0A9F90F239C
:10053C007B610223BB610023FB614FF480633B6250
:10054C0000237B6207F114030221184601F096FF89
:10055C000346002B01D000F093F901237B604FF48C
:10056C008073BB603B1D184602F016F90346002B46
:10057C0001D000F085F900BF5037BD4680BD0000AA
:10058C0080B500AF124B134A1A60114B124A5A60D5
:10059C000F4B00229A600E4B0022DA600C4B4FF48A
:1005AC0080421A610A4B00225A61094B00229A615F
:1005BC00074B0022DA61064B00221A62044801F054
:1005CC0035F80346002B01D000F05AF900BF80BD6E
:1005DC00DC00002000540040A086010080B582B0F1
:1005EC0000AF3B1D00210A461A800A469A70002370
:1005FC003B601D4B1D4A1A601B4B4FF0FF325A607B
:10060C00194B00229A60184802F032FA0346002B6C
:10061C0001D000F035F917233B7130237B71002397
:10062C00BB713B1D012219460F4802F0ADFA03467F
:10063C00002B01D000F024F904233B7011237B70B4
:10064C000723BB702423FB703B4601221946064846
:10065C0002F00AFC0346002B01D000F011F900BF98
:10066C000837BD4680BD00BF300100200028004087
:10067C0080B586B000AF07F1080300221A605A60FB
:10068C009A60DA603B4600221A605A601E4B1F4A81
:10069C001A601D4B4FF6FF125A601B4B00229A60DA
:1006AC00194B0922DA60184B00221A61164B0022F2
:1006BC005A61154B00229A61134802F0CAFF034697
:1006CC00002B01D000F0DCF84FF48053BB6007F135
:1006DC00080319460C4803F04DF90346002B01D0D2
:1006EC0000F0CEF800233B6000237B603B461946AC
:1006FC00054803F02FFB0346002B01D000F0C0F897
:10070C0000BF1837BD4680BD44010020002C0140BD
:10071C0080B500AF114B124A1A60104B4FF4E13206
:10072C005A600E4B00229A600C4B0022DA600B4B85
:10073C0000221A61094B0C225A61084B00229A6163
:10074C00064B0022DA61054803F074FB0346002BCC
:10075C0001D000F095F800BF80BD00BF8C010020D7
:10076C000044004080B588B000AF07F110030022B0
:10077C001A605A609A60DA60384B9B69374A43F0CA
:10078C0010039361354B9B6903F01003FB60FB680E
:10079C00324B9B69314A43F0200393612F4B9B6989
:1007AC0003F02003BB60BB682C4B9B692B4A43F0C6
:1007BC0004039361294B9B6903F004037B607B6802
:1007CC00264B9B69254A43F008039361234B9B6995
:1007DC0003F008033B603B6800222321204800F013
:1007EC00D1FE00224FF440711E4800F0CBFE4FF4B6
:1007FC0000533B611C4B7B610023BB6107F1100371
:10080C001946184800F03AFD23233B6101237B6114
:10081C000023BB610223FB6107F11003194610484A
:10082C0000F02CFD4FF440733B6101237B610023EE
:10083C00BB610223FB6107F110031946094800F064
:10084C001DFD00220021282000F02FFC282000F0A4
:10085C0048FC00BF2037BD4680BD00BF00100240E1
:10086C0000080140001001400000111080B582B05A
:10087C0000AF786000F024F800BF0837BD4680BD9B
:10088C0080B400AF72B600BFFEE7000080B483B046
:10089C0000AF7860074B1B687A6892FBF3F3064A4B
:1008AC001360064B00221A6000BF0C37BD4680BC9B
:1008BC00704700BF0000002098000020940000202A
:1008CC0080B400AF114B1B68002B0BDD0F4B1B686A
:1008DC00013B0E4A13600D4B1B68002B02DC0C4BCA
:1008EC0001221A600B4B1B68002B0BDD094B1B689C
:1008FC00013B084A1360074B1B68002B02DC064BBC
:10090C0001221A6000BFBD4680BC704798000020D1
:10091C0094000020A00000209C00002080B485B032
:10092C0000AF154B9B69144A43F001039361124BC2
:10093C009B6903F00103BB60BB680F4BDB690E4A7C
:10094C0043F08053D3610C4BDB6903F080537B6025
:10095C007B680A4B5B68FB60FB6823F0E063FB6021
:10096C00FB6843F00073FB60044AFB68536000BFF4
:10097C001437BD4680BC7047001002400000014097
:10098C0080B58AB000AF786007F1140300221A60BA
:10099C005A609A60DA607B681B681D4A934232D1B8
:1009AC001C4B9B691B4A43F008039361194B9B69D1
:1009BC0003F008033B613B694FF440737B611223E6
:1009CC00BB6103233B6207F114031946124800F084
:1009DC0055FC124B5B687B627B6A43F0E0637B6285
:1009EC007B6A43F002037B620C4A7B6A5360094BBF
:1009FC00DB69084A43F40013D361064BDB6903F44B
:100A0C000013FB60FB6800BF2837BD4680BD00BFEC
:100A1C000054004000100240000C01400000014056
:100A2C0080B584B000AF78607B681B680F4A934236
:100A3C0018D101F097FA0E4BDB690D4A43F00063B5
:100A4C00D3610B4BDB6903F00063FB60FB68094B64
:100A5C0001221A6000220021032000F026FB032053
:100A6C0000F03FFB00BF1037BD4680BD00280040A2
:100A7C00001002403C04424280B584B000AF786064
:100A8C007B681B680D4A934213D10D4B9B690C4A32
:100A9C0043F4006393610A4B9B6903F40063FB60AE
:100AAC00FB6800220021192000F0FFFA192000F049
:100ABC0018FB00BF1037BD4680BD00BF002C0140A5
:100ACC000010024080B588B000AF786007F11003C9
:100ADC0000221A605A609A60DA607B681B68194AB7
:100AEC0093422BD1184BDB69174A43F40033D36183
:100AFC00154BDB6903F40033FB60FB68124B9B69FD
:100B0C00114A43F0040393610F4B9B6903F00403F8
:100B1C00BB60BB680C233B6102237B610223FB613E
:100B2C0007F110031946094800F0A8FB0022002128
:100B3C00262000F0BAFA262000F0D3FA00BF2037A6
:100B4C00BD4680BD0044004000100240000801403A
:100B5C0080B400AFFEE780B400AFFEE780B400AF16
:100B6C00FEE780B400AFFEE780B400AFFEE780B4D0
:100B7C0000AF00BFBD4680BC704780B400AF00BF63
:100B8C00BD4680BC704780B400AF00BFBD4680BC82
:100B9C00704780B500AF00F071F900BF80BD000058
:100BAC0080B500AF024802F00BFD00BF80BD00BF56
:100BBC003001002080B500AF024802F0EBFD00BF11
:100BCC0080BD00BF4401002080B500AF024803F097
:100BDC00A7F900BF80BD00BF8C01002080B500AF1D
:100BEC004FF4005000F000FD00BF80BD80B586B012
:100BFC0000AF7860144A154BD31A7B617B693B615B
:100C0C00134B1B68002B02D1114B124A1A60104B6C
:100C1C001A687B6813443A699A4207D203F092FE31
:100C2C0003460C221A604FF0FF3309E0084B1B6897
:100C3C00FB60074B1A687B681344054A1360FB681A
:100C4C0018461837BD4680BD005000200004000037
:100C5C00A4000020F801002080B400AF00BFBD4606
:100C6C0080BC704780B582B000AF78607B681B6831
:100C7C00104A934219D1104B1B785A1CD1B20E4A10
:100C8C0011701A460D4B19780D4B99540A4B1B7861
:100C9C001E2B02D1084B00221A700A4B01221A702B
:100CAC0001220649084803F015F900BF0837BD4674
:100CBC0080BD00BF00440040A9000020A800002017
:100CCC00D4010020AA0000208C01002080B483B045
:100CDC0000AF00237B6007E0094A7B6813440022C5
:100CEC001A707B6801337B607B68092BF4DD054B44
:100CFC0000221A7000BF0C37BD4680BC704700BF85
:100D0C00D4010020A900002080B582B000AF204B98
:100D1C001A78204B1B78D31A002B0FD14FF400718B
:100D2C001D4800F047FC4FF4FA60FFF7AFFDFFF7EA
:100D3C002DFB1A4B02221A60FFF7C8FF4FF400710B
:100D4C00154800F037FC00237B600BE0104A7B68F1
:100D5C0013441978124A7B6813440A461A707B684C
:100D6C0001337B607B68022BF0D90D4B0022DA70CB
:100D7C004FF4FA60FFF78AFDFFF708FB074B0122DF
:100D8C001A60FFF7A3FF00BF0837BD4680BD00BF48
:100D9C00D401002074520008001001409000002083
:100DAC00D4000020FFF758FF0B480C490C4A0023D5
:100DBC0002E0D458C4500433C4188C42F9D3094A05
:100DCC00094C002301E013600432A242FBD303F070
:100DDC00BFFDFFF741FB70470000002074000020AE
:100DEC006053000874000020F4010020FEE70000AE
:100DFC0080B500AF084B1B68074A43F01003136023
:100E0C00032000F047F9002000F008F8FFF786FDFA
:100E1C000023184680BD00BF0020024080B582B080
:100E2C0000AF7860124B1A68124B1B7819464FF4BE
:100E3C007A73B3FBF1F3B2FBF3F3184600F05FF9EE
:100E4C000346002B01D001230EE07B680F2B0AD840
:100E5C00002279684FF0FF3000F027F9064A7B68D2
:100E6C001360002300E0012318460837BD4680BDFF
:100E7C00040000200C0000200800002080B400AF0B
:100E8C00054B1B781A46054B1B681344034A136029
:100E9C0000BFBD4680BC70470C000020E001002064
:100EAC0080B400AF024B1B681846BD4680BC70472F
:100EBC00E001002080B584B000AF7860FFF7F0FF50
:100ECC00B8607B68FB60FB68B3F1FF3F05D00A4B51
:100EDC001B781A46FB681344FB6000BFFFF7E0FF6A
:100EEC000246BB68D31AFA689A42F7D800BF00BF13
:100EFC001037BD4680BD00BF0C00002080B485B00B
:100F0C0000AF78607B6803F00703FB600C4BDB6879
:100F1C00BB60BA684FF6FF031340BB60FB681A0254
:100F2C00BB68134343F0BF6343F40033BB60044A14
:100F3C00BB68D36000BF1437BD4680BC704700BF90
:100F4C0000ED00E080B400AF044BDB681B0A03F03B
:100F5C0007031846BD4680BC704700BF00ED00E09B
:100F6C0080B483B000AF0346FB7197F90730002BB8
:100F7C000BDBFB7903F01F02064997F907305B097D
:100F8C00012000FA02F241F8232000BF0C37BD46C5
:100F9C0080BC704700E100E080B483B000AF034632
:100FAC003960FB7197F90730002B0ADB3B68DAB22A
:100FBC000C4997F907301201D2B20B4483F8002385
:100FCC000AE03B68DAB20849FB7903F00F03043BF3
:100FDC001201D2B20B441A7600BF0C37BD4680BC4E
:100FEC00704700BF00E100E000ED00E080B489B084
:100FFC0000AFF860B9607A60FB6803F00703FB612F
:10100C00FB69C3F10703042B28BF0423BB61FB69F5
:10101C000433062B02D9FB69033B00E000237B6100
:10102C004FF0FF32BB6902FA03F3DA43BB681A4094
:10103C007B699A404FF0FF317B6901FA03F3D94386
:10104C007B680B40134318462437BD4680BC704761
:10105C0080B582B000AF78607B68013BB3F1807FD4
:10106C0001D301230FE00A4A7B68013B53600F2137
:10107C004FF0FF30FFF790FF054B00229A60044BB6
:10108C0007221A60002318460837BD4680BD00BFF2
:10109C0010E000E080B582B000AF78607868FFF7B0
:1010AC002DFF00BF0837BD4680BD80B586B000AFB0
:1010BC000346B9607A60FB7300237B61FFF742FF44
:1010CC0078617A68B9687869FFF790FF024697F9FA
:1010DC000F3011461846FFF75FFF00BF1837BD46AB
:1010EC0080BD80B582B000AF0346FB7197F9073025
:1010FC001846FFF735FF00BF0837BD4680BD80B5E9
:10110C0082B000AF78607868FFF7A2FF03461846FC
:10111C000837BD4680BD80B485B000AF7860002331
:10112C00FB737B6893F82130DBB2022B08D07B6811
:10113C0004229A637B68002283F82020012320E09C
:10114C007B681B681A687B681B6822F00E021A60A9
:10115C007B681B681A687B681B6822F001021A60A6
:10116C007B681A6C7B68DB6B012101FA02F25A6016
:10117C007B68012283F821207B68002283F82020E1
:10118C00FB7B18461437BD4680BC704780B584B0D5
:10119C0000AF78600023FB737B6893F82130DBB2DF
:1011AC00022B05D07B6804229A630123FB7351E068
:1011BC007B681B681A687B681B6822F00E021A6039
:1011CC007B681B681A687B681B6822F001021A6036
:1011DC007B681B68224A934229D07B681B68214A92
:1011EC00934222D07B681B681F4A93421AD07B68BB
:1011FC001B681E4A934212D07B681B681C4A9342A0
:10120C000AD07B681B681B4A934202D14FF48013AF
:10121C000EE04FF080730BE04FF4803308E04FF496
:10122C00805305E04FF4807302E0102300E00123AB
:10123C00114A53607B68012283F821207B680022CD
:10124C0083F820207B685B6B002B03D07B685B6B87
:10125C0078689847FB7B18461037BD4680BD00BFA9
:10126C00080002401C0002403000024044000240D2
:10127C00580002406C0002400000024080B48BB069
:10128C0000AF7860396000237B6200233B6269E128
:10129C0001227B6A02FA03F3FB613B681B68FA6963
:1012AC001340BB61BA69FB699A4240F058813B68B4
:1012BC005B689A4A93425ED0984A934275D8984A92
:1012CC00934258D0964A93426FD8964A934252D042
:1012DC00944A934269D8944A93424CD0924A93428E
:1012EC0063D8924A934246D0904A93425DD8122BCF
:1012FC002AD8122B59D801A252F823F083130008D4
:10130C005D1300086F130008B1130008B713000831
:10131C00B7130008B7130008B7130008B713000879
:10132C00B7130008B7130008B7130008B713000869
:10133C00B7130008B7130008B7130008B713000859
:10134C006513000879130008794A934213D02CE0F6
:10135C003B68DB683B6229E03B68DB6804333B623B
:10136C0024E03B68DB6808333B621FE03B68DB68CA
:10137C000C333B621AE03B689B68002B02D10423C0
:10138C003B6213E03B689B68012B05D108233B6251
:10139C007B68FA691A6109E008233B627B68FA6989
:1013AC005A6103E000233B6200E000BFBB69FF2BE6
:1013BC0001D87B6801E07B6804337B61BB69FF2B40
:1013CC0002D87B6A9B0002E07B6A083B9B003B6176
:1013DC007B691A680F213B6901FA03F3DB431A405E
:1013EC00396A3B6901FA03F31A437B691A603B685B
:1013FC005B6803F08053002B00F0B1804D4B9B6970
:10140C004C4A43F0010393614A4B9B6903F001037F
:10141C00BB60BB68484A7B6A9B08023352F8233096
:10142C00FB607B6A03F003039B000F2202FA03F3B9
:10143C00DB43FA681340FB607B68404A934213D04D
:10144C007B683F4A93420DD07B683E4A934207D05B
:10145C007B683D4A934201D1032306E0042304E058
:10146C00022302E0012300E000237A6A02F0030267
:10147C0092009340FA681343FB602F497B6A9B08E8
:10148C000233FA6841F823203B685B6803F480134D
:10149C00002B06D02D4B9A682C49BB6913438B60EB
:1014AC0006E02A4B9A68BB69DB43284913408B60E2
:1014BC003B685B6803F40013002B06D0234BDA68FF
:1014CC002249BB691343CB6006E0204BDA68BB6949
:1014DC00DB431E491340CB603B685B6803F400336D
:1014EC00002B06D0194B5A681849BB6913434B6043
:1014FC0006E0164B5A68BB69DB43144913404B603A
:10150C003B685B6803F48033002B21D00F4B1A68C7
:10151C000E49BB6913430B6021E000BF0000321081
:10152C0000003110000022100000211000001210E9
:10153C0000001110001002400000014000080140A2
:10154C00000C014000100140001401400004014057
:10155C000B4B1A68BB69DB43094913400B607B6A70
:10156C0001337B623B681A687B6A22FA03F3002B17
:10157C007FF48EAE00BF00BF2C37BD4680BC7047D9
:10158C000004014080B483B000AF78600B467B80D0
:10159C0013467B707B78002B03D07A887B681A61AA
:1015AC0003E07B881A047B681A6100BF0C37BD46C8
:1015BC0080BC704780B485B000AF78600B467B80F0
:1015CC007B68DB68FB607A88FB6813401A04FB6855
:1015DC00D9437B880B401A437B681A6100BF1437D0
:1015EC00BD4680BC7047000080B582B000AF03469A
:1015FC00FB80084B5A69FB881340002B06D0054A28
:10160C00FB885361FB88184600F006F800BF0837CA
:10161C00BD4680BD0004014080B483B000AF0346DA
:10162C00FB8000BF0C37BD4680BC704780B584B0D2
:10163C0000AF78607B68002B01D101232BE17B6824
:10164C0093F83D30DBB2002B06D17B68002283F887
:10165C003C207868FFF794F97B68242283F83D20BE
:10166C007B681B681A687B681B6822F001021A6091
:10167C007B681B681A687B681B6842F400421A601E
:10168C007B681B681A687B681B6822F400421A602E
:10169C0001F03CF8F8607B685B68814A934207D89C
:1016AC00FB68804A934294BF01230023DBB206E01F
:1016BC00FB687D4A934294BF01230023DBB2002BCD
:1016CC0001D00123E7E0FB68784AA2FB03239B0CC3
:1016DC00BB607B681B685B6823F03F017B681B6801
:1016EC00BA680A435A607B681B681B6A23F03F0187
:1016FC007B685B686A4A934202D8BB68013309E095
:10170C00BB684FF4967202FB03F3694AA2FB0323F6
:10171C009B0901337A6812680B4313627B681B6860
:10172C00DB6923F44F4222F0FF027B685B685C4963
:10173C008B4219D8FB68591E7B685B685B00B1FB58
:10174C00F3F3591C40F6FC730B40002B0AD0FB68DA
:10175C00591E7B685B685B00B1FBF3F30133C3F389
:10176C000B0351E004234FE07B689B68002B11D1E5
:10177C00FB68581E7B6859680B465B000B44B0FB3A
:10178C00F3F30133C3F30B03002B0CBF0123002332
:10179C00DBB212E0FB68581E7B6859680B469B0055
:1017AC000B4499000B44B0FBF3F30133C3F30B036D
:1017BC00002B0CBF01230023DBB2002B01D0012333
:1017CC0022E07B689B68002B0ED1FB68581E7B685F
:1017DC0059680B465B000B44B0FBF3F30133C3F3C6
:1017EC000B0343F400430FE0FB68581E7B685968F9
:1017FC000B469B000B4499000B44B0FBF3F30133F5
:10180C00C3F30B0343F44043796809681343CB617A
:10181C007B681B681B6823F0C0017B68DA697B68F6
:10182C001B6A1A437B681B680A431A607B681B6837
:10183C009B6823F4034323F0FF037A6811697A68E9
:10184C00D26811437A6812680B4393607B681B68FB
:10185C00DB6823F0FF017B685A697B689B691A433C
:10186C007B681B680A43DA607B681B681A687B68B4
:10187C001B6842F001021A607B6800221A647B68C4
:10188C00202283F83D207B6800221A637B680022AB
:10189C0083F83E20002318461037BD4680BD00BF9C
:1018AC00A08601007F841E00FF083D0083DE1B43E1
:1018BC00D34D621080B588B002AFF8607A601A46DA
:1018CC000B467B8113463B81FFF7EAFA7861FB6894
:1018DC0093F83D30DBB2202B40F0E0807B69009325
:1018EC00192301227049F86800F064F90346002BB3
:1018FC0001D00223D3E0FB6893F83C30012B01D1DB
:10190C000223CCE0FB68012283F83C20FB681B68B7
:10191C001B6803F00103012B07D0FB681B681A68D6
:10192C00FB681B6842F001021A60FB681B681A68AE
:10193C00FB681B6822F400621A60FB68212283F8A2
:10194C003D20FB68102283F83E20FB6800221A64BD
:10195C00FB687A685A62FB683A895A85FB685B8D2A
:10196C009AB2FB681A85FB68504ADA6279897B69FE
:10197C003A6AF86800F09CF80346002B01D001236A
:10198C008DE000233B61FB681B685B693B61FB6876
:10199C001B689B693B613B6966E07A69396AF86848
:1019AC0000F022FA0346002B0DD0FB681B6C042BB5
:1019BC0007D1FB681B681A68FB681B6842F400724D
:1019CC001A6001236BE0FB685B6A1A78FB681B6882
:1019DC001A61FB685B6A5A1CFB685A62FB685B8D78
:1019EC009BB2013B9AB2FB685A85FB681B8D013B8D
:1019FC009AB2FB681A85FB681B685B6903F00403E9
:101A0C00042B1BD1FB681B8D002B17D0FB685B6A6A
:101A1C001A78FB681B681A61FB685B6A5A1CFB68C6
:101A2C005A62FB685B8D9BB2013B9AB2FB685A858C
:101A3C00FB681B8D013B9AB2FB681A857A69396A7F
:101A4C00F86800F019FA0346002B0DD0FB681B6CEC
:101A5C00042B07D1FB681B681A68FB681B6842F4EF
:101A6C0000721A6001231AE0FB681B8D002B94D1C5
:101A7C00FB681B681A68FB681B6842F400721A60EA
:101A8C00FB68202283F83D20FB68002283F83E206F
:101A9C00FB68002283F83C20002300E00223184658
:101AAC001837BD4680BD00BF020010000000FFFFCC
:101ABC0080B588B002AFF8607A603B600B467B81E2
:101ACC00FB68DB6A7B617B69082B06D07B69012B89
:101ADC0003D07B6913F5803F08D1FB681B681A683B
:101AEC00FB681B6842F480721A600BE0FB681B6B8E
:101AFC00122B07D1FB681B681A68FB681B6842F441
:101B0C0080721A603B6800937B6800224FF00111D1
:101B1C00F86800F04FF80346002B0DD0FB681B68EB
:101B2C001B6803F48073B3F5807F03D1FB684FF41B
:101B3C0000721A64032335E0FB681B69B3F5804F10
:101B4C0008D17B89DBB21A46FB681B6802F0FE02E7
:101B5C001A611BE07B89DB11DBB203F00603DBB2FD
:101B6C0063F00F03DAB2FB681B681A613B687A6892
:101B7C000E49F86800F098F80346002B01D00123B9
:101B8C0010E07B89DAB2FB681B681A613B687A68E3
:101B9C000749F86800F088F80346002B01D00123B0
:101BAC0000E0002318461837BD4680BD0800010030
:101BBC000200010080B584B000AFF860B9603B60F2
:101BCC001346FB7148E03B68B3F1FF3F44D0FFF78D
:101BDC0067F90246BB69D31A3A689A4202D33B684A
:101BEC00002B39D1BB681B0CDBB2012B0DD1FB6870
:101BFC001B685B69DA43BB6813409BB2002B0CBFBC
:101C0C0001230023DBB21A460CE0FB681B689B69BE
:101C1C00DA43BB6813409BB2002B0CBF012300239B
:101C2C00DBB21A46FB799A4216D1FB6800221A6382
:101C3C00FB68202283F83D20FB68002283F83E20BD
:101C4C00FB681B6C43F02002FB681A64FB680022E3
:101C5C0083F83C20012323E0BB681B0CDBB2012B77
:101C6C000DD1FB681B685B69DA43BB6813409BB200
:101C7C00002B0CBF01230023DBB21A460CE0FB68DF
:101C8C001B689B69DA43BB6813409BB2002B0CBFEB
:101C9C0001230023DBB21A46FB799A4293D000232E
:101CAC0018461037BD4680BD80B584B000AFF860D3
:101CBC00B9607A603B6071E0FB681B685B6903F498
:101CCC008063B3F5806F23D1FB681B681A68FB68CF
:101CDC001B6842F400721A60FB681B686FF4806228
:101CEC005A61FB6800221A63FB68202283F83D20AE
:101CFC00FB68002283F83E20FB681B6C43F0040257
:101D0C00FB681A64FB68002283F83C20012367E01F
:101D1C007B68B3F1FF3F41D0FFF7C2F802463B6846
:101D2C00D31A7A689A4202D37B68002B36D1BB68EF
:101D3C001B0CDBB2012B0CD1FB681B685B69DA4313
:101D4C00BB6813409BB2002B14BF01230023DBB2F2
:101D5C000BE0FB681B689B69DA43BB6813409BB2C2
:101D6C00002B14BF01230023DBB2002B16D0FB6821
:101D7C0000221A63FB68202283F83D20FB680022B6
:101D8C0083F83E20FB681B6C43F02002FB681A644E
:101D9C00FB68002283F83C20012321E0BB681B0C6C
:101DAC00DBB2012B0CD1FB681B685B69DA43BB68A7
:101DBC0013409BB2002B14BF01230023DBB20BE0BA
:101DCC00FB681B689B69DA43BB6813409BB2002B12
:101DDC0014BF01230023DBB2002B7FF46DAF002373
:101DEC0018461037BD4680BD80B584B000AFF86092
:101DFC00B9607A6034E0F86800F086F80346002B8E
:101E0C0001D0012334E0BB68B3F1FF3F28D0FFF7CA
:101E1C0047F802467B68D31ABA689A4202D3BB6869
:101E2C00002B1DD1FB681B685B6903F08003802BC2
:101E3C0016D0FB6800221A63FB68202283F83D2031
:101E4C00FB68002283F83E20FB681B6C43F02002E9
:101E5C00FB681A64FB68002283F83C20012307E02E
:101E6C00FB681B685B6903F08003802BC3D10023E4
:101E7C0018461037BD4680BD80B584B000AFF86001
:101E8C00B9607A6034E0F86800F03EF80346002B45
:101E9C0001D0012334E0BB68B3F1FF3F28D0FEF73B
:101EAC00FFFF02467B68D31ABA689A4202D3BB681A
:101EBC00002B1DD1FB681B685B6903F00403042B2A
:101ECC0016D0FB6800221A63FB68202283F83D20A1
:101EDC00FB68002283F83E20FB681B6C43F0200259
:101EEC00FB681A64FB68002283F83C20012307E09E
:101EFC00FB681B685B6903F00403042BC3D100234C
:101F0C0018461037BD4680BD80B483B000AF7860F2
:101F1C007B681B685B6903F48063B3F5806F1BD12E
:101F2C007B681B686FF480625A617B6800221A63BD
:101F3C007B68202283F83D207B68002283F83E20BA
:101F4C007B681B6C43F004027B681A647B6800227C
:101F5C0083F83C20012300E0002318460C37BD46D3
:101F6C0080BC704780B400AF034B01221A6000BFE5
:101F7C00BD4680BC704700BF20000E4280B586B0C5
:101F8C0000AF78607B68002B01D101236CE27B6889
:101F9C001B6803F00103002B00F08780924B5B68F9
:101FAC0003F00C03042B0CD08F4B5B6803F00C0379
:101FBC00082B12D18C4B5B6803F48033B3F5803F54
:101FCC000BD1894B1B6803F40033002B6CD07B685E
:101FDC005B68002B68D1012346E27B685B68B3F534
:101FEC00803F06D1804B1B687F4A43F480331360DB
:101FFC002EE07B685B68002B0CD17B4B1B687A4A0C
:10200C0023F480331360784B1B68774A23F48023C6
:10201C0013601DE07B685B68B3F5A02F0CD1724B8D
:10202C001B68714A43F4802313606F4B1B686E4A24
:10203C0043F4803313600BE06B4B1B686A4A23F448
:10204C0080331360684B1B68674A23F4802313604A
:10205C007B685B68002B13D0FEF722FF386108E029
:10206C00FEF71EFF02463B69D31A642B01D90323EA
:10207C00FAE15D4B1B6803F40033002BF0D014E045
:10208C00FEF70EFF386108E0FEF70AFF02463B69D7
:10209C00D31A642B01D90323E6E1534B1B6803F4D9
:1020AC000033002BF0D100E000BF7B681B6803F00D
:1020BC000203002B63D04C4B5B6803F00C03002B2A
:1020CC000BD0494B5B6803F00C03082B1CD1464B1F
:1020DC005B6803F48033002B16D1434B1B6803F071
:1020EC000203002B05D07B681B69012B01D0012357
:1020FC00BAE13D4B1B6823F0F8027B685B69DB009F
:10210C00394913430B603AE07B681B69002B20D0E4
:10211C00364B01221A60FEF7C3FE386108E0FEF769
:10212C00BFFE02463B69D31A022B01D903239BE164
:10213C002D4B1B6803F00203002BF0D02A4B1B68BD
:10214C0023F0F8027B685B69DB00274913430B60C3
:10215C0015E0264B00221A60FEF7A2FE386108E05B
:10216C00FEF79EFE02463B69D31A022B01D90323CC
:10217C007AE11D4B1B6803F00203002BF0D17B6846
:10218C001B6803F00803002B3AD07B689B69002B7B
:10219C0019D0174B01221A60FEF782FE386108E055
:1021AC00FEF77EFE02463B69D31A022B01D90323AC
:1021BC005AE10D4B5B6A03F00203002BF0D00120B7
:1021CC0000F0CCFA1CE00A4B00221A60FEF768FE05
:1021DC0038610FE0FEF764FE02463B69D31A022B0E
:1021EC0008D9032340E100BF001002400000424226
:1021FC00800442429E4B5B6A03F00203002BE9D140
:10220C007B681B6803F00403002B00F0A6800023FE
:10221C00FB75974BDB6903F08053002B0DD1944B6E
:10222C00DB69934A43F08053D361914BDB6903F034
:10223C008053BB60BB680123FB758E4B1B6803F49A
:10224C008073002B18D18B4B1B688A4A43F4807324
:10225C001360FEF725FE386108E0FEF721FE02460A
:10226C003B69D31A642B01D90323FDE0814B1B6816
:10227C0003F48073002BF0D07B68DB68012B06D154
:10228C007B4B1B6A7A4A43F0010313622DE07B6897
:10229C00DB68002B0CD1764B1B6A754A23F00103CB
:1022AC001362734B1B6A724A23F0040313621CE023
:1022BC007B68DB68052B0CD16D4B1B6A6C4A43F0B9
:1022CC00040313626A4B1B6A694A43F001031362ED
:1022DC000BE0674B1B6A664A23F001031362644BE5
:1022EC001B6A634A23F0040313627B68DB68002BD0
:1022FC0015D0FEF7D5FD38610AE0FEF7D1FD024698
:10230C003B69D31A41F28832934201D90323ABE0E3
:10231C00574B1B6A03F00203002BEED014E0FEF7C0
:10232C00BFFD38610AE0FEF7BBFD02463B69D31ADC
:10233C0041F28832934201D9032395E04C4B1B6A3E
:10234C0003F00203002BEED1FB7D012B05D1484B92
:10235C00DB69474A23F08053D3617B68DB69002B30
:10236C0000F08180424B5B6803F00C03082B61D0BA
:10237C007B68DB69022B46D13F4B00221A60FEF7CB
:10238C008FFD386108E0FEF78BFD02463B69D31ADE
:10239C00022B01D9032367E0354B1B6803F0007354
:1023AC00002BF0D17B681B6AB3F5803F08D1304B12
:1023BC005B6823F400327B689B682D4913434B60A8
:1023CC002B4B5B6823F474127B68196A7B685B6A1D
:1023DC000B43274913434B60274B01221A60FEF72E
:1023EC005FFD386108E0FEF75BFD02463B69D31ADE
:1023FC00022B01D9032337E01D4B1B6803F000733C
:10240C00002BF0D02FE01C4B00221A60FEF748FD89
:10241C00386108E0FEF744FD02463B69D31A022BF3
:10242C0001D9032320E0124B1B6803F00073002B2F
:10243C00F0D118E07B68DB69012B01D1012313E09B
:10244C000B4B5B68FB60FB6803F480327B681B6A98
:10245C009A4206D1FB6803F470127B685B6A9A425D
:10246C0001D0012300E0002318461837BD4680BD7B
:10247C0000100240007000406000424280B584B001
:10248C0000AF786039607B68002B01D10123D0E06C
:10249C006A4B1B6803F007033A689A4210D9674BE2
:1024AC001B6823F0070265493B6813430B60634BC1
:1024BC001B6803F007033A689A4201D00123B8E085
:1024CC007B681B6803F00203002B20D07B681B6821
:1024DC0003F00403002B05D0594B5B68584A43F4B6
:1024EC00E06353607B681B6803F00803002B05D086
:1024FC00534B5B68524A43F460535360504B5B68D8
:10250C0023F0F0027B689B684D4913434B607B685A
:10251C001B6803F00103002B40D07B685B68012B28
:10252C0007D1474B1B6803F40033002B15D1012353
:10253C007FE07B685B68022B07D1414B1B6803F083
:10254C000073002B09D1012373E03D4B1B6803F092
:10255C000203002B01D101236BE0394B5B6823F0A4
:10256C0003027B685B68364913434B60FEF798FCAB
:10257C00F8600AE0FEF794FC0246FB68D31A41F2BD
:10258C008832934201D9032353E02D4B5B6803F04F
:10259C000C027B685B689B009A42EBD1274B1B6853
:1025AC0003F007033A689A4210D2244B1B6823F0BD
:1025BC00070222493B6813430B60204B1B6803F056
:1025CC0007033A689A4201D0012332E07B681B680A
:1025DC0003F00403002B08D0194B5B6823F4E06272
:1025EC007B68DB68164913434B607B681B6803F000
:1025FC000803002B09D0124B5B6823F460527B68F4
:10260C001B69DB000E4913434B6000F021F80246B6
:10261C000B4B5B681B0903F00F030A49CB5C22FAD6
:10262C0003F3094A1360094B1B681846FEF7F6FBC7
:10263C00002318461037BD4680BD00BF0020024065
:10264C000010024084520008040000200800002002
:10265C0080B487B000AF0023FB600023BB60002375
:10266C007B6100237B6000233B611E4B5B68FB603E
:10267C00FB6803F00C03042B02D0082B03D027E0DB
:10268C00194B3B6127E0FB689B0C03F00F03174AC7
:10269C00D35C7B60FB6803F48033002B10D0114BB0
:1026AC005B685B0C03F00103114AD35CBB607B6875
:1026BC000D4A02FB03F2BB68B2FBF3F37B6104E04F
:1026CC007B680C4A02FB03F37B617B693B6102E094
:1026DC00054B3B6100BF3B6918461C37BD4680BCAF
:1026EC00704700BF0010024000127A009C52000894
:1026FC00AC52000800093D0080B400AF024B1B68CF
:10270C001846BD4680BC70470400002080B500AF61
:10271C00FFF7F2FF0246054B5B681B0A03F0070349
:10272C000349CB5C22FA03F3184680BD001002402B
:10273C009452000880B500AFFFF7DEFF0246054B50
:10274C005B68DB0A03F007030349CB5C22FA03F353
:10275C00184680BD001002409452000880B485B029
:10276C0000AF78600A4B1B680A4AA2FB03235B0A82
:10277C007A6802FB03F3FB6000BFFB685A1EFA6029
:10278C00002BF9D100BF00BF1437BD4680BC704789
:10279C0004000020D34D621080B586B000AF786085
:1027AC0000233B610023FB607B681B6803F0010383
:1027BC00002B7DD00023FB754F4BDB6903F080535E
:1027CC00002B0DD14C4BDB694B4A43F08053D3614A
:1027DC00494BDB6903F08053BB60BB680123FB757D
:1027EC00464B1B6803F48073002B18D1434B1B68BA
:1027FC00424A43F480731360FEF752FB386108E0E1
:10280C00FEF74EFB02463B69D31A642B01D9032316
:10281C006DE03A4B1B6803F48073002BF0D0364B01
:10282C001B6A03F44073FB60FB68002B2ED07B68A3
:10283C005B6803F44073FA689A4227D02E4B1B6AEC
:10284C0023F44073FB602E4B01221A602C4B0022A8
:10285C001A60294AFB681362FB6803F00103002B22
:10286C0014D0FEF71DFB38610AE0FEF719FB024697
:10287C003B69D31A41F28832934201D9032336E0E3
:10288C001D4B1B6A03F00203002BEED01A4B1B6A84
:10289C0023F440727B685B68174913430B62FB7D22
:1028AC00012B05D1144BDB69134A23F08053D36100
:1028BC007B681B6803F00203002B08D00E4B5B688F
:1028CC0023F440427B689B680B4913434B607B6845
:1028DC001B6803F01003002B08D0074B5B6823F434
:1028EC0080027B68DB68044913434B600023184665
:1028FC001837BD4680BD00BF00100240007000407C
:10290C004004424280B588B000AF786000237B6100
:10291C000023FB6100233B610023FB600023BB61B0
:10292C007B68102B0AD07B68102B00F28A807B68A6
:10293C00012B45D07B68022B75D082E0464B5B683F
:10294C00FB60454B1B6803F08073002B7BD0FB684E
:10295C009B0C03F00F03414AD35C3B61FB6803F40F
:10296C008033002B15D03C4B5B685B0C03F00103F0
:10297C003B4AD35C7B61FB6803F48033002B0DD0A6
:10298C00384A7B69B2FBF3F23B6902FB03F3FB6150
:10299C0004E03B69344A02FB03F3FB612E4B5B689A
:1029AC0003F48003B3F5800F02D1FB69BB614AE0ED
:1029BC00FB695B002D4AA2FB03235B08BB6142E071
:1029CC00254B1B6AFB60FB6803F44073B3F5807FF7
:1029DC0008D1FB6803F00203002B03D04FF4004333
:1029EC00BB611FE0FB6803F44073B3F5007F09D1B2
:1029FC00194B5B6A03F00203002B03D049F64043EA
:102A0C00BB610FE0FB6803F44073B3F5407F1CD14E
:102A1C00114B1B6803F40033002B16D04FF22443E8
:102A2C00BB6112E011E0FFF785FE02460A4B5B68C2
:102A3C009B0B03F0030301335B00B2FBF3F3BB61AD
:102A4C0004E000BF02E000BF00E000BFBB69184615
:102A5C002037BD4680BD00BF00100240B0520008B8
:102A6C00C052000800127A0000093D00ABAAAAAAC5
:102A7C0080B584B000AF78600023FB607B68002BCE
:102A8C0001D101237AE07B685B7CDBB2002B05D1A2
:102A9C007B6800221A747868FDF7C2FF7B680222FB
:102AAC005A74786800F0EAFA0346002B04D07B686D
:102ABC0004225A74012361E0786800F0A3FB0346FA
:102ACC00002B04D07B6804225A74012356E07B68E7
:102ADC001B685A687B681B6822F007025A607B6887
:102AEC009B68002B05D0274B1B6B264A23F0010358
:102AFC001363244BDB6A23F460727B689B68214967
:102B0C001343CB627B685B68B3F1FF3F03D07B68F8
:102B1C005B68FB600EE00120FFF7F4FEF860FB68D9
:102B2C00002B04D17B6804225A74012326E0FB6835
:102B3C00013BFB60FB681A0C7B681B6802F00F0200
:102B4C009A607B681B68FA6892B2DA60786800F069
:102B5C0081FB0346002B04D07B6804225A740123AA
:102B6C000CE07B680022DA737B6801225A737B6865
:102B7C0001229A737B6801225A740023184610377D
:102B8C00BD4680BD006C004090B587B000AFF860CA
:102B9C00B9607A6000237B6100233B61FB68002BEA
:102BAC0002D0BB68002B01D1012380E0FB681B7CA9
:102BBC00012B01D102237AE0FB6801221A74FB6815
:102BCC0002225A747B68002B13D1BB681B781A46FF
:102BDC004FF4616303FB02F2BB685B7819460B464A
:102BEC001B015B1A9B001344BA68927813447B61F7
:102BFC001EE0BB681B78184600F071FB03461A46B2
:102C0C004FF4616303FB02F4BB685B78184600F079
:102C1C0066FB03461A4613461B019B1A9B001C4479
:102C2C00BB689B78184600F05AFB034623447B6133
:102C3C007969F86800F07FFA0346002B07D0FB682F
:102C4C0004225A74FB6800221A7401232FE0FB68DB
:102C5C001B685A68FB681B6822F005025A60F8680A
:102C6C0000F090FA38613B69B3F1FF3F18D03A6934
:102C7C007B699A4214D23B6903F5A83303F5C07300
:102C8C003B613969F86800F096FA0346002B07D0CF
:102C9C00FB6804225A74FB6800221A74012306E0B4
:102CAC00FB6801225A74FB6800221A740023184630
:102CBC001C37BD4690BD000080B588B000AFF860F1
:102CCC00B9607A600023BB610023FB6100237B6148
:102CDC0000233B61FB68002B02D0BB68002B01D1A9
:102CEC000123B5E0FB681B685B6803F00403002B51
:102CFC0001D00123ACE0F86800F0EDF9B861BB69D4
:102D0C00554AA2FB0323DB0A3B61BA69524BA3FB76
:102D1C000213DB0A4FF4616101FB03F3D31A4F4A30
:102D2C00A2FB03235B09DAB2BB685A70BB694A4A3F
:102D3C00A2FB0312D20A4FF4616101FB02F29A1A50
:102D4C00464BA3FB021359090B461B015B1A9B0054
:102D5C00D11ACAB2BB689A703B69172B55D93B691B
:102D6C003F4AA2FB03231B097B6139693C4BA3FB44
:102D7C0001231A0913465B001344DB00CA1AD2B2B2
:102D8C00BB681A70F86800F0FDF9F861FB69B3F1E3
:102D9C00FF3F08D0FA69BB699A4204D9FA69BB694A
:102DAC00D31AFB6102E04FF0FF33FB617B692D4AC4
:102DBC0002FB03F3BA69D31ABB61B969F86800F076
:102DCC00BAF90346002B01D0012341E0FB69B3F1B2
:102DDC00FF3F0CD0FA69BB691344FB61F969F868D1
:102DEC0000F0E9F90346002B0AD0012330E0F96921
:102DFC00F86800F0E0F90346002B01D0012327E02E
:102E0C007969F86800F088FA03E03B69DAB2BB68CC
:102E1C001A707B68002B1AD0BB681B78184600F020
:102E2C0041FA03461A46BB681A70BB685B781846B1
:102E3C0000F038FA03461A46BB685A70BB689B7898
:102E4C00184600F02FFA03461A46BB689A70002306
:102E5C0018462037BD4680BDC5B3A29189888888A5
:102E6C00ABAAAAAA8051010080B588B000AFF86067
:102E7C00B9607A600023FB610023BB6100237B6196
:102E8C00FB68002B02D0BB68002B01D1012397E01B
:102E9C00FB681B7C012B01D1022391E0FB68012212
:102EAC001A74FB6802225A747B68002B0CD1BB6825
:102EBC00DA78FB68DA73BB685A78FB685A73BB68BC
:102ECC009A78FB689A731AE0BB68DB78184600F0B6
:102EDC0006FA03461A46FB68DA73BB685B78184639
:102EEC0000F0FDF903461A46FB685A73BB689B78E1
:102EFC00184600F0F4F903461A46FB689A73FB680F
:102F0C00DB7B1846FB68597BFB689B7B1A4600F001
:102F1C00DFFA03461A46FB681A73FB681A7BBB6818
:102F2C001A70F86800F0D7F8F861FB69264AA2FB22
:102F3C000323DB0A7B617B69182B3AD97B69234A13
:102F4C00A2FB03231B09224A02FB03F3FA69D31ADF
:102F5C00FB61F969F86800F0EEF80346002B07D026
:102F6C00FB6804225A74FB6800221A74012327E0C0
:102F7C00F86800F007F9B861BB69B3F1FF3F18D0EE
:102F8C00BA69FB699A4214D2BB6903F5A83303F5FD
:102F9C00C073BB61B969F86800F00DF90346002BEA
:102FAC0007D0FB6804225A74FB6800221A740123B0
:102FBC0006E0FB6801225A74FB6800221A74002395
:102FCC0018462037BD4680BDC5B3A291ABAAAAAAAC
:102FDC008051010080B586B000AFF860B9607A60AE
:102FEC0007F1140300210A461A800A469A70FB68FE
:102FFC00002B02D0BB68002B01D101233AE007F172
:10300C00140300221946F868FFF756FE0346002BFE
:10301C0001D001232EE0FB681A7BBB681A70FB6899
:10302C00DA7BBB68DA70FB685A7BBB685A70FB684A
:10303C009A7BBB689A707B68002B1AD0BB68DB78D4
:10304C00184600F02FF903461A46BB68DA70BB68C5
:10305C005B78184600F026F903461A46BB685A708E
:10306C00BB689B78184600F01DF903461A46BB68EE
:10307C009A70002318461837BD4680BD80B584B0C1
:10308C0000AF78600023FB607B68002B01D101232B
:10309C001DE07B681B685A687B681B6822F008027D
:1030AC005A60FDF7FDFEF86009E0FDF7F9FE0246F7
:1030BC00FB68D31AB3F57A7F01D9032307E07B6849
:1030CC001B685B6803F00803002BEED00023184646
:1030DC001037BD4680BD80B487B000AF7860002348
:1030EC007B8200233B820023FB8100237B617B6876
:1030FC001B689B697B827B681B68DB69FB817B6837
:10310C001B689B693B827A8A3B8A9A4208D03B8A2D
:10311C001A047B681B68DB699BB213437B6104E078
:10312C007B8A1A04FB8913437B617B6918461C3725
:10313C00BD4680BC704780B584B000AF7860396004
:10314C000023FB73786800F05DF80346002B02D077
:10315C000123FB7311E07B681B683A68120C9A61BF
:10316C007B681B683A6892B2DA61786800F072F892
:10317C000346002B01D00123FB73FB7B1846103751
:10318C00BD4680BD80B485B000AF78600023FB8164
:10319C000023BB817B681B681B6AFB817B681B68F7
:1031AC005B6ABB81FB891A04BB891343184614372D
:1031BC00BD4680BC704780B584B000AF7860396084
:1031CC000023FB73786800F01DF80346002B02D037
:1031DC000123FB7311E07B681B683A68120C1A62BE
:1031EC007B681B683A6892B25A62786800F032F8D1
:1031FC000346002B01D00123FB73FB7B18461037D1
:10320C00BD4680BD80B584B000AF78600023FB6004
:10321C00FDF746FEF86009E0FDF742FE0246FB684A
:10322C00D31AB3F57A7F01D903230FE07B681B68AF
:10323C005B6803F02003002BEED07B681B685A6898
:10324C007B681B6842F010025A6000231846103746
:10325C00BD4680BD80B584B000AF78600023FB60B4
:10326C007B681B685A687B681B6822F010025A60E6
:10327C00FDF716FEF86009E0FDF712FE0246FB684A
:10328C00D31AB3F57A7F01D9032307E07B681B6857
:10329C005B6803F02003002BEED000231846103798
:1032AC00BD4680BD80B485B000AF0346FB710023E2
:1032BC00FB6005E0FB680133FB60FB790A3BFB71AB
:1032CC00FB79092BF6D8FB68DBB21B01DAB2FB7970
:1032DC001343DBB218461437BD4680BC704780B42C
:1032EC0085B000AF0346FB710023FB60FB791B0923
:1032FC00DBB21A4613469B0013445B00FB60FB7960
:10330C0003F00F03DAB2FB68DBB21344DBB21846EE
:10331C001437BD4680BC704780B586B000AF78606E
:10332C00396000237B6100233B610023FB60002399
:10333C00BB607B68DB7B7B617B685B7B3B617B6819
:10334C009B7BFB600023BB606FE03B69012B11D0C2
:10335C003B69032B0ED03B69052B0BD03B69072B2C
:10336C0008D03B69082B05D03B690A2B02D03B697E
:10337C000C2B17D1FB681E2B03D8FB680133FB60A9
:10338C0050E03B690C2B05D03B6901333B610123B9
:10339C00FB6047E001233B610123FB607B69013348
:1033AC007B613FE03B69042B08D03B69062B05D0C1
:1033BC003B69092B02D03B690B2B0CD1FB681D2BF5
:1033CC0003D8FB680133FB602CE03B6901333B61A4
:1033DC000123FB6026E03B69022B23D1FB681B2BEE
:1033EC0003D8FB680133FB601CE0FB681C2B11D17C
:1033FC007B699BB2184600F039F80346002B03D0CA
:10340C00FB680133FB600DE03B6901333B61012339
:10341C00FB6007E0FB681D2B04D13B6901333B616A
:10342C000123FB60BB680133BB60BA683B689A42FE
:10343C008BD37B69DAB27B68DA733B69DAB27B686F
:10344C005A73FB68DAB27B689A733B69DBB2FA6831
:10345C00D2B21946786900F03BF803461A467B68ED
:10346C001A7300BF1837BD4680BD000080B483B00E
:10347C0000AF0346FB80FB8803F003039BB2002BD9
:10348C0001D000231DE0FB88104AA2FB0312520955
:10349C00642101FB02F29B1A9BB2002B01D0012389
:1034AC000FE0FB88094AA2FB0312D2094FF4C87142
:1034BC0001FB02F29B1A9BB2002B01D1012300E00D
:1034CC00002318460C37BD4680BC70471F85EB5156
:1034DC0080B485B000AF78600B46FB701346BB70B0
:1034EC000023BB600023FB607B6803F5FA63BB60C1
:1034FC00FB78022B2DD8FA7813465B001344DB00C3
:10350C009B1A2C4AA2FB03235A08BB781A44BB68AB
:10351C001A44BB68013B9B081A44BB68013B264913
:10352C00A1FB03135B09D21ABB68013B2249A1FB27
:10353C000313DB0913441A1D204BA3FB0213D11AEE
:10354C0049080B4499080B46DB005B1AD31AFB6045
:10355C0029E0FA7813465B001344DB009B1A154AEA
:10356C00A2FB03235A08BB781A44BB681A44BB68F5
:10357C009B081A44BB681049A1FB03135B09D21AC0
:10358C00BB680D49A1FB0313DB0913449A1C0B4BBD
:10359C00A3FB0213D11A49080B4499080B46DB0014
:1035AC005B1AD31AFB60FB68DBB218461437BD46B6
:1035BC0080BC7047398EE3381F85EB512549922426
:1035CC0080B582B000AF78607B681B681B6803F025
:1035DC000103002B27D07B681B685B6803F0010399
:1035EC00002B20D07B681B685B6803F00403002B66
:1035FC000BD0786800F024F87B681B686FF004022D
:10360C005A607B6804225A7405E0786800F00FF861
:10361C007B6801225A747B681B685A687B681B683C
:10362C0022F001025A6000BF0837BD4680BD80B44D
:10363C0083B000AF786000BF0C37BD4680BC7047CC
:10364C0080B483B000AF786000BF0C37BD4680BC3F
:10365C00704780B582B000AF78607B68002B01D1D9
:10366C00012341E07B6893F83D30DBB2002B06D19F
:10367C007B68002283F83C207868FDF7FDF97B68B5
:10368C00022283F83D207B681A687B680433194654
:10369C00104600F05BFA7B68012283F846207B68B9
:1036AC00012283F83E207B68012283F83F207B684F
:1036BC00012283F840207B68012283F841207B683B
:1036CC00012283F842207B68012283F843207B6827
:1036DC00012283F844207B68012283F845207B6813
:1036EC00012283F83D20002318460837BD4680BDD3
:1036FC0080B485B000AF78607B6893F83D30DBB266
:10370C00012B01D001233AE07B68022283F83D2093
:10371C007B681B68DA687B681B6842F00102DA6020
:10372C007B681B68184A93420ED07B681B68B3F108
:10373C00804F09D07B681B68144A934204D07B6885
:10374C001B68134A934211D17B681B689B6803F07A
:10375C000703FB60FB68062B10D07B681B681A689C
:10376C007B681B6842F001021A6007E07B681B68EB
:10377C001A687B681B6842F001021A600023184625
:10378C001437BD4680BC7047002C0140000400403B
:10379C000008004080B584B000AF78607B681B687F
:1037AC00DB68FB607B681B681B69BB60BB6803F054
:1037BC000203002B20D0FB6803F00203002B1BD06C
:1037CC007B681B686FF002021A617B6801221A7712
:1037DC007B681B689B6903F00303002B03D078689C
:1037EC0000F098F905E0786800F08BF9786800F043
:1037FC009AF97B6800221A77BB6803F00403002B4C
:10380C0020D0FB6803F00403002B1BD07B681B68E3
:10381C006FF004021A617B6802221A777B681B68BE
:10382C009B6903F44073002B03D0786800F072F9A5
:10383C0005E0786800F065F9786800F074F97B6849
:10384C0000221A77BB6803F00803002B20D0FB681A
:10385C0003F00803002B1BD07B681B686FF0080279
:10386C001A617B6804221A777B681B68DB6903F09A
:10387C000303002B03D0786800F04CF905E078685E
:10388C0000F03FF9786800F04EF97B6800221A7757
:10389C00BB6803F01003002B20D0FB6803F010036F
:1038AC00002B1BD07B681B686FF010021A617B68C1
:1038BC0008221A777B681B68DB6903F44073002BC2
:1038CC0003D0786800F026F905E0786800F019F963
:1038DC00786800F028F97B6800221A77BB6803F03F
:1038EC000103002B0CD0FB6803F00103002B07D065
:1038FC007B681B686FF001021A617868FCF7B6FFF1
:10390C00BB6803F08003002B0CD0FB6803F0800332
:10391C00002B07D07B681B686FF080021A617868F7
:10392C0000F07FFABB6803F04003002B0CD0FB685F
:10393C0003F04003002B07D07B681B686FF040023C
:10394C001A61786800F0F8F8BB6803F02003002BCC
:10395C000CD0FB6803F02003002B07D07B681B689E
:10396C006FF020021A61786800F052FA00BF10372D
:10397C00BD4680BD80B584B000AF7860396000234F
:10398C00FB737B6893F83C30012B01D10223B4E02C
:10399C007B68012283F83C207B68022283F83D205F
:1039AC007B681B689B68BB60BB6823F07703BB60BC
:1039BC00BB6823F47F43BB607B681B68BA689A6062
:1039CC003B681B68B3F5005F3ED0B3F5005F00F2B7
:1039DC008780B3F5805F00F08680B3F5805F7FD879
:1039EC00702B1AD0702B7BD8602B50D0602B77D8D3
:1039FC00502B3CD0502B73D8402B58D0402B6FD829
:103A0C00302B64D0302B6BD8202B60D0202B67D878
:103A1C00002B5CD0102B5AD062E07B6818683B6896
:103A2C0099683B685A683B68DB6800F074F97B68FE
:103A3C001B689B68BB60BB6843F07703BB607B680B
:103A4C001B68BA689A604FE07B6818683B68996895
:103A5C003B685A683B68DB6800F05DF97B681B6863
:103A6C009A687B681B6842F480429A603CE07B68F1
:103A7C0018683B6859683B68DB681A4600F0D4F854
:103A8C007B681B685021184600F02BF92CE07B68F2
:103A9C0018683B6859683B68DB681A4600F0F2F816
:103AAC007B681B686021184600F01BF91CE07B68E2
:103ABC0018683B6859683B68DB681A4600F0B4F834
:103ACC007B681B684021184600F00BF90CE07B6802
:103ADC001A683B681B681946104600F002F903E0AF
:103AEC000123FB7300E000BF7B68012283F83D20BB
:103AFC007B68002283F83C20FB7B18461037BD46C0
:103B0C0080BD80B483B000AF786000BF0C37BD4679
:103B1C0080BC704780B483B000AF786000BF0C37B6
:103B2C00BD4680BC704780B483B000AF786000BFE6
:103B3C000C37BD4680BC704780B483B000AF786052
:103B4C0000BF0C37BD4680BC7047000080B485B008
:103B5C0000AF786039607B681B68FB607B682F4A1C
:103B6C0093420BD07B68B3F1804F07D07B682C4A13
:103B7C00934203D07B682B4A934208D1FB6823F015
:103B8C007003FB603B685B68FA681343FB607B68FF
:103B9C00224A93420BD07B68B3F1804F07D07B68ED
:103BAC001F4A934203D07B681E4A934208D1FB689C
:103BBC0023F44073FB603B68DB68FA681343FB60DB
:103BCC00FB6823F080023B685B691343FB607B68F6
:103BDC00FA681A603B689A687B68DA623B681A6814
:103BEC007B689A627B680D4A934203D13B681A69E1
:103BFC007B681A637B6801225A617B681B6903F03E
:103C0C000103002B05D07B681B6923F001027B6844
:103C1C001A6100BF1437BD4680BC7047002C0140B0
:103C2C00000400400008004080B487B000AFF8608A
:103C3C00B9607A60FB681B6A7B61FB681B6A23F0C6
:103C4C000102FB681A62FB689B693B613B6923F0CC
:103C5C00F0033B617B681B013A6913433B617B6951
:103C6C0023F00A037B617A69BB6813437B61FB68B1
:103C7C003A699A61FB687A691A6200BF1C37BD46C3
:103C8C0080BC704780B487B000AFF860B9607A60D0
:103C9C00FB681B6A7B61FB681B6A23F01002FB68E4
:103CAC001A62FB689B693B613B6923F470433B617F
:103CBC007B681B033A6913433B617B6923F0A003C8
:103CCC007B61BB681B017A6913437B61FB683A69B2
:103CDC009A61FB687A691A6200BF1C37BD4680BCCA
:103CEC00704780B485B000AF786039607B689B68A2
:103CFC00FB60FB6823F07003FB603A68FB681343BE
:103D0C0043F00703FB607B68FA689A6000BF1437C6
:103D1C00BD4680BC704780B487B000AFF860B96016
:103D2C007A603B60FB689B687B617B6923F47F4313
:103D3C007B613B681A027B681A43BB6813437A6940
:103D4C0013437B61FB687A699A6000BF1C37BD46E0
:103D5C0080BC704780B485B000AF786039607B68F8
:103D6C0093F83C30012B01D1022346E07B68012201
:103D7C0083F83C207B68022283F83D207B681B681B
:103D8C005B68FB607B681B689B68BB60FB6823F00F
:103D9C007003FB603B681B68FA681343FB607B682D
:103DAC001B68FA685A607B681B68164A93420ED0EF
:103DBC007B681B68B3F1804F09D07B681B68124A83
:103DCC00934204D07B681B68104A93420CD1BB68A9
:103DDC0023F08003BB603B685B68BA681343BB602D
:103DEC007B681B68BA689A607B68012283F83D2067
:103DFC007B68002283F83C20002318461437BD460C
:103E0C0080BC7047002C01400004004000080040BA
:103E1C0080B483B000AF786000BF0C37BD4680BC67
:103E2C00704780B483B000AF786000BF0C37BD46DC
:103E3C0080BC704780B582B000AF78607B68002B87
:103E4C0001D1012342E07B6893F84130DBB2002BB7
:103E5C0006D17B68002283F840207868FCF732FE9C
:103E6C007B68242283F841207B681B68DA687B68B6
:103E7C001B6822F40052DA60786800F0D5FC7B688D
:103E8C001B681A697B681B6822F490421A617B6874
:103E9C001B685A697B681B6822F02A025A617B688E
:103EAC001B68DA687B681B6842F40052DA607B6836
:103EBC0000225A647B68202283F841207B682022F0
:103ECC0083F842207B6800225A6300231846083787
:103EDC00BD4680BD80B584B000AFF860B9601346B4
:103EEC00FB80FB6893F84230DBB2202B12D1BB680D
:103EFC00002B02D0FB88002B01D101230BE0FB68C7
:103F0C0000221A63FB881A46B968F86800F0B7FA01
:103F1C00034600E0022318461037BD4680BD000062
:103F2C0080B5BAB000AF78607B681B681B68C7F8B7
:103F3C00E4307B681B68DB68C7F8E0307B681B6883
:103F4C005B69C7F8DC300023C7F8D8300023C7F80A
:103F5C00D430D7F8E43003F00F03C7F8D830D7F8D3
:103F6C00D830002B0FD1D7F8E43003F02003002B0E
:103F7C0009D0D7F8E03003F02003002B03D0786889
:103F8C0000F093FB5BE2D7F8D830002B00F0DE801A
:103F9C00D7F8DC3003F00103002B06D1D7F8E03062
:103FAC0003F49073002B00F0D180D7F8E43003F0C9
:103FBC000103002B0BD0D7F8E03003F48073002BF7
:103FCC0005D07B685B6C43F001027B685A64D7F8C0
:103FDC00E43003F00403002B0BD0D7F8DC3003F0F3
:103FEC000103002B05D07B685B6C43F002027B68FD
:103FFC005A64D7F8E43003F00203002B0BD0D7F847
:10400C00DC3003F00103002B05D07B685B6C43F0C4
:10401C0004027B685A64D7F8E43003F00803002BE1
:10402C0011D0D7F8E03003F02003002B05D1D7F8DE
:10403C00DC3003F00103002B05D07B685B6C43F094
:10404C0008027B685A647B685B6C002B00F0F28181
:10405C00D7F8E43003F02003002B08D0D7F8E03079
:10406C0003F02003002B02D0786800F01EFB7B6865
:10407C001B685B6903F04003002B14BF0123002372
:10408C00DBB2C7F8D4307B685B6C03F00803002B01
:10409C0003D1D7F8D430002B4FD0786800F028FA31
:1040AC007B681B685B6903F04003002B41D07B6885
:1040BC001B681433C7F89C30D7F89C3053E8003F8A
:1040CC00C7F89830D7F8983023F04003C7F8D030B1
:1040DC007B681B681433D7F8D020C7F8A820C7F822
:1040EC00A430D7F8A410D7F8A82041E80023C7F8CB
:1040FC00A030D7F8A030002BD9D17B68DB6B002B1C
:10410C0013D07B68DB6B7E4A5A637B68DB6B18468B
:10411C00FDF73CF80346002B16D07B68DB6B5B6B22
:10412C007A68D26B104698470EE0786800F093F9E5
:10413C000AE0786800F08FF906E0786800F08BF9F7
:10414C007B6800225A6475E100BF73E17B681B6BCE
:10415C00012B40F04F81D7F8E43003F01003002B13
:10416C0000F04881D7F8E03003F01003002B00F08A
:10417C0041810023BB607B681B681B68BB607B684C
:10418C001B685B68BB60BB687B681B685B6903F082
:10419C004003002B00F0B6807B68DB6B1B685B6810
:1041AC00A7F8BE30B7F8BE30002B00F045817B6815
:1041BC009B8DB7F8BE209A4280F03E817B68B7F8A1
:1041CC00BE20DA857B68DB6B9B69202B00F0888036
:1041DC007B681B680C33C7F88830D7F8883053E8F5
:1041EC00003FC7F88430D7F8843023F48073C7F8C5
:1041FC00B8307B681B680C33D7F8B820C7F894200C
:10420C00C7F89030D7F89010D7F8942041E80023E5
:10421C00C7F88C30D7F88C30002BD9D17B681B6851
:10422C0014337B677B6F53E8003F3B673B6F23F096
:10423C000103C7F8B4307B681B681433D7F8B4207B
:10424C00C7F88020FB67F96FD7F8802041E800237E
:10425C00BB67BB6F002BE1D17B681B6814333B66DB
:10426C003B6E53E8003FFB65FB6D23F04003C7F842
:10427C00B0307B681B681433D7F8B020FA66BB6685
:10428C00B96EFA6E41E800237B667B6E002BE3D19E
:10429C007B68202283F842207B6800221A637B68AB
:1042AC001B680C33FB64FB6C53E8003FBB64BB6CBA
:1042BC0023F01003C7F8AC307B681B680C33D7F8BD
:1042CC00AC20BA657B65796DBA6D41E800233B651E
:1042DC003B6D002BE3D17B68DB6B1846FCF71BFFB7
:1042EC007B6802225A637B689A8D7B68DB8D9BB25C
:1042FC00D31A9BB21946786800F0B6F89CE000BF60
:10430C00C14500087B689A8D7B68DB8D9BB2D31A04
:10431C00A7F8CE307B68DB8D9BB2002B00F08E8033
:10432C00B7F8CE30002B00F089807B681B680C330B
:10433C00BB63BB6B53E8003F7B637B6B23F49073D5
:10434C00C7F8C8307B681B680C33D7F8C8207A6470
:10435C003B64396C7A6C41E80023FB63FB6B002BEC
:10436C00E3D17B681B6814337B627B6A53E8003FA4
:10437C003B623B6A23F00103C7F8C4307B681B68BF
:10438C001433D7F8C4203A63FB62F96A3A6B41E8FC
:10439C000023BB62BB6A002BE3D17B68202283F82D
:1043AC0042207B6800221A637B681B680C333B61DC
:1043BC003B6953E8003FFB60FB6823F01003C7F830
:1043CC00C0307B681B680C33D7F8C020FA61BB6126
:1043DC00B969FA6941E800237B617B69002BE3D161
:1043EC007B6802225A63B7F8CE301946786800F021
:1043FC003BF823E0D7F8E43003F08003002B09D01E
:10440C00D7F8E03003F08003002B03D0786800F07D
:10441C00E5F814E0D7F8E43003F04003002B0ED09D
:10442C00D7F8E03003F04003002B08D0786800F098
:10443C0024F904E000BF02E000BF00E000BFE83751
:10444C00BD4680BD80B483B000AF786000BF0C3730
:10445C00BD4680BC704780B483B000AF786000BFAD
:10446C000C37BD4680BC704780B483B000AF786019
:10447C000B467B8000BF0C37BD4680BC704780B4B8
:10448C0085B000AFF860B9601346FB80FB68BA6872
:10449C009A62FB68FA889A85FB68FA88DA85FB6869
:1044AC0000225A64FB68222283F84220FB681B69B5
:1044BC00002B07D0FB681B68DA68FB681B6842F4AA
:1044CC008072DA60FB681B685A69FB681B6842F0F3
:1044DC0001025A61FB681B68DA68FB681B6842F0D2
:1044EC002002DA60002318461437BD4680BC7047A2
:1044FC0080B495B000AF78607B681B680C337B632D
:10450C007B6B53E8003F3B633B6B23F49073FB6482
:10451C007B681B680C33FA6C3A64FB63F96B3A6C7E
:10452C0041E80023BB63BB6B002BE5D17B681B68A8
:10453C0014333B623B6A53E8003FFB61FB6923F099
:10454C000103BB647B681B681433BA6CFA62BB62F0
:10455C00B96AFA6A41E800237B627B6A002BE5D1D9
:10456C007B681B6B012B19D17B681B680C33FB60C0
:10457C00FB6853E8003FBB60BB6823F010037B640F
:10458C007B681B680C337A6CBA617B617969BA6998
:10459C0041E800233B613B69002BE5D17B6820227D
:1045AC0083F842207B6800221A6300BF5437BD4653
:1045BC0080BC704780B584B000AF78607B685B6A64
:1045CC00FB60FB680022DA85FB680022DA84F8685D
:1045DC00FFF741FF00BF1037BD4680BD80B485B0EA
:1045EC0000AF78607B6893F84130DBB2212B3ED171
:1045FC007B689B68B3F5805F14D17B681B69002BCB
:10460C0010D17B681B6AFB60FB681B881A467B68B1
:10461C001B68C2F308025A607B681B6A9A1C7B6891
:10462C001A6208E07B681B6A591C7A6811621A7856
:10463C007B681B685A607B68DB8C9BB2013B9BB22E
:10464C007A681946D184002B0FD17B681B68DA6815
:10465C007B681B6822F08002DA607B681B68DA6872
:10466C007B681B6842F04002DA60002300E0022302
:10467C0018461437BD4680BC704780B582B000AF79
:10468C0078607B681B68DA687B681B6822F04002E4
:10469C00DA607B68202283F841207868FFF7D2FE2D
:1046AC00002318460837BD4680BD80B58CB000AFDE
:1046BC0078607B6893F84230DBB2222B40F0AE80FE
:1046CC007B689B68B3F5805F17D17B681B69002BF7
:1046DC0013D10023FB627B689B6ABB627B681B68FF
:1046EC005B689BB2C3F308039AB2BB6A1A807B68FF
:1046FC009B6A9A1C7B689A6226E07B689B6AFB62C9
:10470C000023BB627B689B68B3F5805F07D07B6836
:10471C009B68002B0AD17B681B69002B06D17B6838
:10472C001B685B68DAB2FB6A1A7008E07B681B686E
:10473C005B68DBB203F07F03DAB2FB6A1A707B684A
:10474C009B6A5A1C7B689A627B68DB8D9BB2013B2F
:10475C009BB27A681946D185002B5DD17B681B68AA
:10476C00DA687B681B6822F02002DA607B681B68C1
:10477C00DA687B681B6822F48072DA607B681B68DD
:10478C005A697B681B6822F001025A617B682022FF
:10479C0083F842207B6800225A637B681B6B012BD9
:1047AC0035D17B6800221A637B681B680C337B61F4
:1047BC007B6953E8003F3B613B6923F010037B624C
:1047CC007B681B680C337A6A3A62FB61F9693A6A56
:1047DC0041E80023BB61BB69002BE5D17B681B68FA
:1047EC001B6803F01003102B0AD10023FB607B68BD
:1047FC001B681B68FB607B681B685B68FB60FB6865
:10480C007B689B8D19467868FFF72EFE02E078686E
:10481C00FCF728FA002302E0002300E002231846EC
:10482C003037BD4680BD000080B584B000AF7860E5
:10483C007B681B681B6923F440517B68DA687B68D2
:10484C001B680A431A617B689A687B681B691A4368
:10485C007B685B691343BB607B681B68DB6823F474
:10486C00B05323F00C037A681268B9680B43D36019
:10487C007B681B685B6923F440717B689A697B6871
:10488C001B680A435A617B681B682C4A934203D10C
:10489C00FDF750FFF86002E0FDF738FFF860FA68AA
:1048AC0013469B0013449A001A447B685B689B0078
:1048BC00B2FBF3F3224AA2FB03235B091901FA684A
:1048CC0013469B0013449A001A447B685B689B0058
:1048DC00B2FBF3F21A4BA3FB02035B09642000FB4F
:1048EC0003F3D31A1B013233154AA2FB03235B09D2
:1048FC0003F0F0031944FA6813469B0013449A0022
:10490C001A447B685B689B00B2FBF3F20C4BA3FB75
:10491C0002035B09642000FB03F3D31A1B0132333F
:10492C00074AA2FB03235B0903F00F027B681B6899
:10493C000A449A6000BF1037BD4680BD0038014064
:10494C001F85EB51014B1868704700BF1000002009
:10495C0070B500260C4D0D4C641BA410A64209D159
:10496C0000F05CFC00260A4D0A4C641BA410A64205
:10497C0005D170BD55F8043B98470136EEE755F864
:10498C00043B98470136F2E7585300085853000887
:10499C00585300085C53000870477047034610B525
:1049AC00C9B202449342184601D1002003E00478B6
:1049BC0001338C42F6D110BD0A44914200F1FF3311
:1049CC0000D1704710B511F8014B914203F8014F1B
:1049DC00F9D110BD03460244934200D1704703F84D
:1049EC00011BF9E738B50546002943D051F8043CC2
:1049FC000C1F002BB8BFE41800F0CAF81E4A13684D
:104A0C00104633B9636014602846BDE8384000F0A6
:104A1C00C5B8A3420AD921686218934201BF1A682B
:104A2C005B685218226063600460EDE71A465B68AD
:104A3C000BB1A342FAD911685018A0420BD12068CF
:104A4C000144501883421160DED118685B68014440
:104A5C0011605360D8E702D90C232B60D4E720688F
:104A6C0021188B4201BF19685B68091821606360CB
:104A7C005460C9E738BD00BFAC000020F8B5CD1CB0
:104A8C0025F0030508350C2D38BF0C25002D0646E6
:104A9C0001DBA94203D90C2333600020F8BD00F0E0
:104AAC0077F821490A6814469CB9204F3B6823B912
:104ABC002146304600F03CF838602946304600F07C
:104ACC0037F8431C23D10C233046336000F066F8D2
:104ADC00E3E723685B1B17D40B2B03D923601C441F
:104AEC00256004E06368A2420CBF0B605360304643
:104AFC0000F054F804F10B00231D20F00700C21A3B
:104B0C00CCD01B1AA350C9E722466468CCE7C41C5E
:104B1C0024F00304A042E3D0211A304600F008F838
:104B2C000130DDD1CFE700BFAC000020B000002089
:104B3C0038B50023054D044608462B60FCF756F8A3
:104B4C00431C02D12B6803B1236038BDF001002057
:104B5C000EB46FF0004100B59CB01DAB02900690F6
:104B6C00079104910848094953F8042B05910068F2
:104B7C0002A9019300F074F80022029B1A701CB079
:104B8C005DF804EB03B07047100000200802FFFF33
:104B9C000148FFF701BF00BFE80100200148FFF703
:104BAC00FCBE00BFE80100202DE9F0478E6882466C
:104BBC009E420C4690461F4638D88A8912F4906F54
:104BCC0032D0256809690133A5EB010965694B44AD
:104BDC0005EB450505EBD5756D109D4238BF1D469F
:104BEC00530531D52946FFF749FF064650B90C232A
:104BFC004FF0FF30CAF80030A38943F04003A38183
:104C0C00BDE8F0874A462169FFF7D6FEA38923F455
:104C1C00906343F08003A38126614E4426603E4698
:104C2C006561A5EB0905A560BE4200D93E4632463A
:104C3C004146206800F0AAFAA36822689B1B324404
:104C4C000020A3602260DBE72A4600F0B9FA064692
:104C5C000028E1D150462169FFF7C4FEC7E70000E8
:104C6C002DE9F04F98468B8907461B060D461446D6
:104C7C009DB00ED50B6963B94021FFF7FFFE28608C
:104C8C00286120B90C233B604FF0FF30D1E040236A
:104C9C006B610023099320238DF8293030234FF0CA
:104CAC000109CDF80C80DFF8A4818DF82A30234659
:104CBC009A4613F8012B0AB1252AF9D1BAEB040B49
:104CCC000BD05B46224629463846FFF76DFF013074
:104CDC0000F0AA80099A5A4409929AF80030002BE5
:104CEC0000F0A28000234FF0FF32CDE905230AF13A
:104CFC00010A049307938DF853301A9354460522F6
:104D0C0014F8011B5148FFF749FE049AD8B9D00694
:104D1C0044BF20238DF85330110744BF2B238DF84B
:104D2C0053309AF800302A2B15D0544600204FF0FF
:104D3C000A0C079A214611F8013B303B092B4ED93E
:104D4C00B0B1079214E0A0EB080309FA03F3134384
:104D5C00A2460493D2E7039B191D1B680391002BF9
:104D6C00BBBF5B4242F0020207930793B8BF0492A9
:104D7C0023782E2B0CD163782A2B35D1039B02344C
:104D8C001A1D1B680392002BB8BF4FF0FF3305931D
:104D9C00DFF8C8A0032250462178FFF7FFFD40B191
:104DAC004023A0EB0A0003FA00F0049B01340343F8
:104DBC00049314F8011B062225488DF82810FFF7E0
:104DCC00EDFD002838D0234B1BBB039B073323F08E
:104DDC00070308330393099B3344099367E70C4695
:104DEC0001200CFB0232A5E700234FF00A0C1946F8
:104DFC0001340593204610F8012B303A092A03D9C7
:104E0C00002BC5D00591C3E7044601230CFB0121FF
:104E1C00F0E703AB00932A4638460F4B04A9AFF3D7
:104E2C000080421C0646D6D1AB895B063FF52CAF01
:104E3C0009981DB0BDE8F08F03AB00932A463846A5
:104E4C00054B04A900F07CF8EBE700BF24530008E5
:104E5C002E53000800000000B54B00082A53000830
:104E6C002DE9F047164699468A680B690746934226
:104E7C00B8BF1346336091F843200C46DDF8208010
:104E8C000AB1013333602368990642BF3368023399
:104E9C003360256815F0060506D104F1190AE3689C
:104EAC0032689B1AAB4228DC94F84320131E22680C
:104EBC0018BF012392062DD44946384604F143020B
:104ECC00C047013020D02368E56803F00603042BAB
:104EDC0018BF002532684FF00006A36808BFAD1A52
:104EEC00226908BF25EAE5759342C4BF9B1AED18E9
:104EFC001A34B5421AD1002008E001235246494623
:104F0C003846C047013003D14FF0FF30BDE8F08781
:104F1C000135C4E73020E11881F843005A1C94F89D
:104F2C0045102244023382F84310C5E70123224680
:104F3C0049463846C0470130E6D00136D9E7000073
:104F4C002DE9FF470C46277E9146782F80469A46DE
:104F5C000C9904F1430207D8622F0AD8002F00F0F5
:104F6C00D980582F00F0A48004F1420684F84270D6
:104F7C003AE0A7F16303152BF6D801A050F823F003
:104F8C00E54F0008F94F0008754F0008754F0008F1
:104F9C00754F0008754F0008F94F0008754F000851
:104FAC00754F0008754F0008754F00080751000831
:104FBC0029500008E9500008754F0008754F00088B
:104FCC0029510008754F000829500008754F00083A
:104FDC00754F0008F15000080B6804F142061A1DC9
:104FEC001B680A6084F842300123A4E02568086835
:104FFC002E0600F104030AD505680B60002D03DAB8
:10500C002D236D4284F843300A235E4819E015F0D5
:10501C00400F05680B6018BF2DB2EFE70B682568D1
:10502C00181D0860280601D51D6802E06906FBD52D
:10503C001D886F2F0CBF08230A235248002184F8C7
:10504C0043106668002EA8BF2168A660A4BF21F09B
:10505C00040121600DB9002E4DD01646B5FBF3F1BD
:10506C0003FB1157C75D06F8017D2F46BB420D4669
:10507C00F4D9082B0BD12368DF0708D523696168A5
:10508C009942DEBF302306F8013C06F1FF36921B35
:10509C0022614B4621464046CDF800A003AAFFF7FB
:1050AC00DFFE01304CD14FF0FF3004B0BDE8F0878B
:1050BC00344884F845700E68236856F8045B1F0664
:1050CC000E6014D5D90744BF43F0200323601DB9EB
:1050DC00236823F0200323601023AFE7236843F0F9
:1050EC00200323607823284884F84530E3E75E06E4
:1050FC0048BFADB2E6E71646BBE70B6826681D1D38
:10510C0060690D6035061B6801D5186002E07106F8
:10511C00FBD51880002316462361BAE70B681A1DCD
:10512C000A601E68002130466268FFF737FC08B140
:10513C00801B606063682361002384F84330A8E718
:10514C003246494640462369D0470130ABD02368EC
:10515C009B0713D4E068039B9842B8BF1846A4E79A
:10516C000123324649464046D04701309BD0013599
:10517C00E36803995B1AAB42F2DCEBE7002504F120
:10518C001906F5E73553000846530008884210B558
:10519C0001EB020402D98442234607D8431EA142E4
:1051AC0008D011F8012B03F8012FF8E7014602444F
:1051BC008A4200D110BD13F8014D02F8014DF7E7FA
:1051CC00F8B5074614460E4621B91146BDE8F8401D
:1051DC00FFF754BC22B9FFF705FC25462846F8BD5D
:1051EC0000F014F8A0420FD221463846FFF746FCD7
:1051FC0005460028F2D031462246FFF7DDFB31464A
:10520C003846FFF7EFFBE9E73546E7E751F8043C92
:10521C00181F002BBCBF0B58C0187047F8B500BF47
:10522C00F8BC08BC9E467047F8B500BFF8BC08BC7B
:04523C009E467047D3
:1052400057656C636F6D65004552524F5200000008
:10525000253032642D253032642D323025303264D1
:1052600000000000253032643A253032643A25309F
:1052700032640000310000000D0A214144433D2505
:105280006C75230000000000000000000102030410
:1052900006070809000000000102030402030405D8
:1052A000060708090A0B0C0D0E0F10100102000072
:1052B00002030405060708090A0B0C0D0E0F101057
:1052C00001020000000000000000000000000000DB
:1052D00000000000000000000000000000000000CE
:1052E00000000000000000000000000000000000BE
:1052F00000000000000000000000000000000000AE
:10530000000000000000000000000000000000009D
:10531000000000000000000000000000000000008D
:1053200000000000232D302B2000686C4C006566C7
:1053300067454647003031323334353637383941E6
:1053400042434445460030313233343536373839FC
:08535000616263646566000000
:045358003101000817
:04535C000D01000837
:105360000A00000000127A00100000000100000096
:105370001400002000000000E4520008045300085C
:10538000C4520008000000000000000000000000FF
:10539000000000000000000000000000000000000D
:1053A00000000000000000000000000000000000FD
:1053B00000000000000000000000000000000000ED
:1053C00000000000000000000000000000000000DD
:0453D00000000000D9
:0400000508000DB131
:00000001FF
